:100000000C94EB010C9423020C9423020C94230215
:100010000C9423020C9423020C9423020C942302CC
:100020000C9423020C9423020C94B51C0C94871D91
:100030000C94BD170C9423020C9423020C942302FD
:100040000C9423020C9423020C9423020C9423029C
:100050000C9423020C9446180C9423020C94230253
:100060000C9423020C9423020C9423020C9423027C
:100070000C9423020C9423020C9423020C9423026C
:100080000C9423020C9423020C9423020C9423025C
:100090000C9423020C9423020C9423020C9423024C
:1000A0000C9423020C9423020C94230299049904C7
:1000B000C504C50433055105400640065605CC0568
:1000C000DD05DD05A9141B15B1147B147F14B514CF
:1000D0008214B814C3148D1411159114C7149514F7
:1000E000CB14F5149914CF14FF149F14D514DF14F6
:1000F0008614BC148914BF14A414DA14EB140B1561
:100100000D157714AD142415EF15F515E315E91544
:10011000FB1501160716EF1D161E0E1F161E0E1FCD
:10012000621E851E0E1FDC1EEB1E14001A00080046
:10013000150017001C0018000C0012001300042208
:100140001624072109280A000B000D280E210F2470
:1001500033221D001B0006001900050011001000CD
:1001600036003700380000000000000028422B0055
:100170002A002C4100000000000001001E001F00AA
:100180002000A9004A004E004B004D00340201003F
:10019000210022002300AA005000510052004F000D
:1001A000340039002400250026002700010001004A
:1001B000010001000100000000000000235229009E
:1001C0000100010000000000000001002F002F02CC
:1001D00030020100230226022702300035021E02EF
:1001E0001F0220022102220224022D002E003100D3
:1001F00035000100010001000100010025022D026F
:100200002E02310201000000000000000100010088
:100210004C00235200000000000001003A003B00A7
:100220003C0043000100D900DA000100017C01001C
:100230003D003E003F004400CF00CE00CD00D00086
:100240004900010040004100420045000100D1008A
:10025000D2000100010000000000000001000100C8
:10026000010001000000000000000C036B006F00A3
:1002700061006C00610000001403630075007200EF
:10028000720065006E0074004B0042000000040321
:10029000090409023B00020100A0FA090400000160
:1002A000030101000921110100012240000705811D
:1002B00003080001090401000103000000092111E5
:1002C00001000122B600070582032000011201008F
:1002D0000200000008EDFE0000000101020001051F
:1002E000010902A10185020901A1000509190129DD
:1002F00008150025019508750181020501093009DD
:10030000311581257F9502750881060938158125EB
:100310007F950175088106050C0A38021581257F35
:10032000950175088106C0C005010980A1018503FA
:1003300019012AB700150126B70095017510810033
:10034000C0050C0901A101850419012AA0021501AB
:1003500026A002950175108100C005010906A101C2
:100360008506050719E029E715002501950875019F
:1003700081020507190029EF1500250195F0750187
:10038000810205081901290595057501910295015C
:1003900075039101C005010906A101050719E029AE
:1003A000E715002501950875018102950175088101
:1003B000010507190029FF150026FF00950675089D
:1003C000810005081901290595057501910295011E
:1003D00075039101C00011241FBECFEFDAE0DEBF2C
:1003E000CDBF04B603FE18C08091A4029091A5026F
:1003F000A091A602B091A7028730904BA740B04BC6
:1004000059F41092A4021092A5021092A602109222
:10041000A702E0E0F8E3099511E0A0E0B1E0E6EF23
:10042000FFE302C005900D92A439B107D9F722E08D
:10043000A4E9B1E001C01D92A43AB207E1F70E941D
:10044000BB110C94F91F0C9400008430B0F464309C
:10045000A0F44A3090F498E2899FF00111248AE0D8
:10046000689FE00DF11D1124E40FF11DEE0FFF1F39
:10047000E65DFE4F85919491089581E090E00895A6
:100480000E942502089581E0089581E008950E9468
:100490004502089508950E944A020895A5E0B0E03B
:1004A000E4E5F2E00C94651F49835A8330919B0187
:1004B00089819A81311114C0662359F0222349F0B1
:1004C0000E941E08182F682F89819A810E94FA07BE
:1004D00003C00E940C08182F69817A81812F04C003
:1004E0000E941E0869817A810E94350F2596E3E0FB
:1004F0000C94811FFC01262F408151816281738100
:1005000084810E944E02089581E00895CF93DF9385
:10051000EC0160E00E947A02BE010E944B02DF9172
:10052000CF91089508950E94C3060E9492022FEF72
:1005300084E39CE0215080409040E1F700C000003F
:1005400008950E9493020E946C1808950E949302DD
:100550000E94901808950F931F93CF93DF938C01FF
:1005600061E00E947A02EC01B8010E9447028823F0
:1005700009F442C0B801CE010E94D7158823E1F1E9
:10058000B801CE010E9453148823B1F1B801CE0105
:100590000E943D15882381F1F8018281882341F171
:1005A000C3308CE7D807D1F040F4C115FCE7DF0772
:1005B00091F0C130DC47A1F01BC0CB35ECE7DE0782
:1005C000A9F0CC35FCE7DF0771F0CA35DC4781F4D0
:1005D0000E948B0C0DC00E94A1020EC00E94930CC1
:1005E0000E94A60209C00E94810C02C00E948F0CCA
:1005F000C8010E94430201C080E0DF91CF911F91AA
:100600000F9108950E9495170E94290308950E9452
:100610002D030E949E170895089581E0089508957E
:10062000CF93DF93D82F0E940D03C82F882319F092
:100630008D2F0E940F038C2FDF91CF910895089585
:10064000CF93C82F0E940C038C2F0E941003CF91D0
:10065000089580E00E94200308950E9424160E94BD
:1006600020030895CF930E942416C82F80919601ED
:10067000C81779F0C09396010E942B1860939701D8
:10068000709398018093990190939A018C2F0E9406
:100690002003CF910895ABE0B0E0E1E5F3E00C94E6
:1006A000661F4F83588769877A878B8761110E94FD
:1006B000C90B9E012F5F3F4F86E0F90111928A9589
:1006C000E9F785E0FE013796D90101900D928A95F0
:1006D000E1F789819A814C815D81452B31F09F3F03
:1006E00031F491E08F3F19F403C091E001C090E034
:1006F00090FF09C049815A816B817C818D819E81E7
:100700000E94F50A05C0C9010E9484028111F2CF3E
:100710002B96E2E00C94821FFC01808191810E9463
:1007200050080895662319F00E94401202C00E94EA
:100730009B120E9412130895CF93882309F450C08E
:10074000C82F8CEF8C0F813AD0F46C2F8091000170
:10075000909101010E94B916882349F06C2F809175
:100760000001909101010E9447170E94ED0B6C2F30
:1007700080910001909101010E9439170CC080E224
:100780008C0F883058F4C77081E001C0880FCA957B
:10079000EAF70E94AC0B0E94ED0B22C0EBE5EC0FD8
:1007A000E33040F4F0E0E75BFE4F808190E00E9490
:1007B000591616C0E8E5EC0FEB3150F4F0E0EE0FFF
:1007C000FF1FED5EFE4F808191810E947E1608C062
:1007D00083E38C0F833120F461E08C2F0E9492031D
:1007E000CF9108958823A9F19CEF980F913A40F496
:1007F000682F80910001909101010E9447170DC060
:1008000090E2980F983060F4877091E001C0990FE2
:100810008A95EAF7892F0E94B20B0E94ED0B08958A
:100820009BE5980F933028F480E090E00E945916E1
:10083000089598E5980F9B3128F480E090E00E949D
:100840007E16089593E3980F933118F460E00E94A8
:10085000920308951F93CF93DF93182FEB010E940B
:100860009C03209741F08FE99FE00197F1F700C0CA
:1008700000002197F6CF812F0E94F203DF91CF91E4
:100880001F910895893319F060E070E002C060E5BF
:1008900070E00E942A040895882321F00E94AC0B86
:1008A0000E94ED0B0895882321F00E94B20B0E9454
:1008B000ED0B0895A0E0B0E0E0E6F4E00C94601FDA
:1008C0007C01162FC72FFC01D281058102950F7084
:1008D0000E94A20B8823E9F0DD23D9F08C2F807FC2
:1008E000803451F080E2810F883098F0011104C00B
:1008F0008C2F807E803269F08091820282FF09C055
:1009000082E00E944F0C0E94A20B91E0D82ED926C3
:1009100001C0D12CCC2EC2948FE0C8228C2D90E047
:100920008C30910508F0ACC1FC01EA5AFF4F0C94E1
:10093000501F8C2F807FCF70882311F0C295C07F0D
:10094000DD2399F0CC2309F487C180E2810F883040
:1009500010F0111104C08C2F0E94AC0B03C08C2F1F
:100960000E94BC0B0E94ED0B77C1812F0E94F20305
:10097000CC2309F485C180E2810F883038F111233E
:1009800029F18C2F0E94C20B24C08C2F807FCF7046
:10099000803211F0C295C07F112319F01130D1F1CE
:1009A00043C08091820282FD17C0DD2349F0CC2331
:1009B00029F08C2F0E94AC0B0E94ED0B80E04DC102
:1009C00080E00E94F203CC2309F45AC18C2F0E94CC
:1009D000B20B0E94ED0B54C1DD2371F0002341F0F6
:1009E000013031F40E94CC0B8C2B0E94D60B48C1F5
:1009F0000E94CC0B8C2B23C0011103C00E94E30B7F
:100A00002EC0013009F43CC18C2F0E9453040E9477
:100A1000E30B36C1DD2321F0063008F031C10EC0F2
:100A2000053008F02DC11BC0DD2361F0002331F03B
:100A3000F701858180FF10C18F7085838C2F0E9404
:100A40004C041EC1002359F0193309F016C1FFEF01
:100A500027EE83E0F15020408040E1F70CC18C2F5D
:100A60000E9453040DC18C2F86958695837019F0D2
:100A7000813061F005C1DD2321F0812F9C2F93701F
:100A800002C080E090E00E94591602C1DD2321F0EF
:100A9000812F9C2F937002C080E090E00E947E1610
:100AA000F7C06D2F812F0E949203F2C08C2F8370AC
:100AB000B1F5D111E9C0412F429546954770440FD9
:100AC000440F812F8F7090E09C01042E02C0220FF2
:100AD000331F0A94E2F714FF0AC08FE090E002C0CF
:100AE000880F991F4A95E2F78095909502C080E0A3
:100AF00090E0C695C695C370822B932BC23049F007
:100B000058F4C13019F00E942D07BEC00E9424077E
:100B1000BBC00E943607B8C00E942107B5C0DD23C4
:100B200019F08C2F817001C08695882309F4ACC020
:100B3000412F429546954770440F440F812F8F7087
:100B400090E09C01042E02C0220F331F0A94E2F7AA
:100B500014FF0AC08FE090E002C0880F991F4A95E9
:100B6000E2F78095909502C080E090E0C695C6952A
:100B7000C370822B932BC23049F058F4C13019F066
:100B80000E94950781C00E948C077EC00E949E072C
:100B90007BC00E94420778C0CF70DD2339F08C2FD4
:100BA0000E945A07812F0E944C046EC0812F0E9420
:100BB00053048C2F0E946A0767C0123F21F128F46A
:100BC000103F41F0113FC1F043C0133F19F1143FF2
:100BD00079F03EC0DD2341F0053008F051C08C2F84
:100BE0008F710E947C074CC0063008F049C0F7CFD7
:100BF0008091820282FD18C0DD2339F08C2F8F7125
:100C00000E945A073DC0DD23C9F38C2F8F710E94CB
:100C10006A0736C0DD2329F08C2F8F710E944E07A2
:100C20002FC00E9449072CC0DD2349F0CF718C2FC3
:100C30000E945A0763E08C2F0E94310C21C081E092
:100C40000E944F0C0230E0F082E00E944F0C18C06E
:100C5000DD2331F0002391F2812F0E949C0310C00C
:100C6000002399F2193349F49FEFE7EEF3E0915036
:100C7000E040F040E1F700C00000812F0E94F20345
:100C800088EF8C0D843020F40E9424160E942003EB
:100C9000DD2089F00E949E0B80FD0DC0F7011282BD
:100CA0000E94980B0E945A07C7010E9478060E9472
:100CB000980B0E946A07CDB7DEB7E8E00C947C1F62
:100CC0000F931F93CF93DF93EC01688179818A8121
:100CD0000E945B088C010E94A7070E941207B801BE
:100CE000CE010E945A04DF91CF911F910F91089578
:100CF000CF93DF93EC01988189812B813C81232B59
:100D000031F08F3F31F481E09F3F19F403C081E05F
:100D100001C080E080FD1AC0CE010E94AB028111AB
:100D20000FC00E94A20B882389F08A81882371F06A
:100D30008091820282FF0AC082E00E944F0C06C0AE
:100D4000CE010E946006CE010E948602DF91CF9103
:100D5000089580E090E00E94591680E090E00E94A3
:100D60007E160E94C90B0E94ED0B0E9431130E9457
:100D70001213089580910001909101010E9455176E
:100D80000E94A90608950E94B90B0E94BA06089510
:100D900092959F70963079F010F4925001C09A505D
:100DA000923068F4803F69F018F4883E40F409C03E
:100DB000843F29F406C0883E20F0813F11F080E096
:100DC000089581E00895FC0190818181238134811F
:100DD000232B31F08F3F31F481E09F3F19F403C0A2
:100DE00081E001C080E080FD07C0808191810E9488
:100DF00050080E94C806089580E00895A5E0B0E07C
:100E0000E4E0F7E00C94661F2596E2E00C94821F64
:100E1000A6E0B0E0EEE0F7E00C94661F2696E2E074
:100E20000C94821F089508950E94130708950E944C
:100E3000140708950E9417079093B3018093B2019D
:100E400008950E941A0708952091B2013091B301CC
:100E5000822B932B0E941A0708952091B2013091A2
:100E6000B301822393230E941A0708952091B201AF
:100E70003091B301822793270E941A0708950E9498
:100E8000130708950E943F079093B1018093B0012A
:100E9000089580E090E00E944207089521E030E04C
:100EA000A90102C0440F551F8A95E2F7CA010E94AA
:100EB0004207089521E030E002C0220F331F8A95D7
:100EC000E2F78091B0019091B101822B932B0E94A7
:100ED0004207089521E030E002C0220F331F8A95B7
:100EE000E2F7209530958091B0019091B101822375
:100EF00093230E944207089521E030E002C0220FB0
:100F0000331F8A95E2F78091B0019091B101822759
:100F100093270E94420708952091B0013091B101BA
:100F2000822B932B0E94420708952091B0013091AB
:100F3000B101822393230E94420708952091B001BA
:100F40003091B101822793270E94420708950895A6
:100F5000962F9770A1E001C0AA0F9A95EAF793E047
:100F6000769567959A95E1F7660F771F660F771F5D
:100F7000FA01E60FF71F40E050E0682F70E0908123
:100F80009B01042E02C0369527950A94E2F7217042
:100F9000219529272A23292721934F5F5F4F44302A
:100FA000510569F70895FB01782F777023E0969536
:100FB00087952A95E1F7880F991F880F991FE80FE9
:100FC000F91F40E050E080E0219130E0072E02C0A0
:100FD000369527950A94E2F721703327042E01C035
:100FE000220F0A94EAF7822B4F5F5F4F443051057E
:100FF00059F70895282F943070F48A3060F4862FC2
:10100000622F70E02AE0929F600D711D11244CE95F
:1010100051E00E94A8070895943070F48A3060F47B
:10102000292F90E06CE971E03AE0239F800D911D3B
:1010300011240E94D307089580E00895A0E0B0E055
:10104000E4E2F8E00C945F1F7C010091B001109184
:10105000B1018091B2019091B301082B192BCFE01F
:10106000D0E0CC24C394D12CC6010C2E02C0880F32
:10107000991F0A94E2F780239123892B21F4219769
:1010800098F7B12C07C0BC2EB7018C2F0E94410FDE
:101090000197A9F38B2DCDB7DEB7E9E00C947B1F48
:1010A000CF93DF93EC010E941E08BE010E94410F06
:1010B000DF91CF9108951F93CF93DF93EB01909130
:1010C0009B01992321F0CB010E94500813C0882373
:1010D00049F0CB010E941E08182F682FCE010E94F4
:1010E000FA0704C0CB010E940C08182FBE01812F03
:1010F0000E94410FDF91CF911F9108951F93CF93CD
:10110000DF93C091B40116E08091B501C81799F042
:10111000D0E01C9FF0011D9FF00D1124EA54FE4FFA
:101120004081518162817381848195810E94080789
:101130002196C770E9CFDF91CF911F91089540911B
:10114000E6015091E7016091E8017091E901809119
:10115000EA019091EB010E94080708952091B401E3
:101160009091B50156E02917A9F030E0529FF001A7
:10117000539FF00D1124EA54FE4F7181761306C07F
:101180007081781303C07281741306C02F5F3F4FC4
:101190002770E9CF80E0089581E008950F931F93B1
:1011A000CF93DF938091EB0182958F7009F05AC045
:1011B0008091E801882309F455C08091B401109111
:1011C000B5016091E6017091E701C091E901D0910C
:1011D000EA0191E06F3F09F090E0292F06E08117C6
:1011E00009F440C0209721F07F3F21F030E003C098
:1011F00031E001C0322F90E030FD31C0089FF00196
:10120000099FF00D1124DF01AA54BE4F11963C91A5
:101210001197371324C03C91361321C012963C918C
:10122000129731111CC013964D915C9114974C1B71
:101230005D0B483C510598F48091EB018F70806103
:101240008093EB01E554FE4F80818F708061808335
:1012500086EE91E00E9478060E947E0803C0019607
:101260008770BDCFDF91CF911F910F910895A1E1BC
:10127000B0E0EDE3F9E00C945C1F8C0185E0F8012F
:10128000DE011D9601900D928A95E1F7F801E2804A
:101290009091E6012091E7014091E9015091EA0126
:1012A0004115510531F02F3F31F481E09F3F19F492
:1012B00003C081E001C080E080FD78C1F801C080FA
:1012C000D1808380948086EEA82E81E0B82EF090A5
:1012D000E801B401641B750BFF2009F411C1809172
:1012E000EB01382F307F683C710508F0CBC031111D
:1012F0008AC0D21213C0C91211C0FE2CE1100EC058
:101300008F7080618093EB010E949F08C5010E944D
:1013100078068091EB01F801858362C18114910404
:1013200039F0FFEFDF1206C081E0CF1203C003C027
:1013300081E001C080E080FD03C081E08E2502C015
:1013400080E090E080FF05C04E2D6D2D8C2D0E9419
:10135000AE088114910439F02FEFD21206C081E05B
:10136000C21203C003C081E001C080E080FD03C061
:1013700081E08E2502C080E090E0682F6170B62E7B
:1013800080FF37C04E2D6D2D8C2D0E94AE08F82E9B
:1013900081112FC0CD86DE868D859E850E945008E6
:1013A000292F22952F70243020F49F70223028F0AE
:1013B00009C02A50223088F017C0992351F08111BA
:1013C00008C00EC1992329F0F8019581907F09F496
:1013D00007C1805E883040F403C1803F08F400C13B
:1013E000815F833008F4FCC0C8010E947806FB2CA2
:1013F000F7C0FE2CEE2009F4F3C08091EB01816070
:101400008093EB0154C0D21206C0C91204C0E1108F
:1014100002C0F80199C0C8010E94E306882361F167
:10142000EE2051F12091EB01822F82958F7090E098
:10143000029774F08091E6019091E70198878F837D
:1014400019869B868A862C87CE0107960E9478068D
:1014500086E0F801A6EEB1E001900D928A95E1F7E1
:101460000E94CE080E949F080AC0D21611F1C8013E
:101470000E94E30681112CC0C8010E947806FF2457
:10148000F394AEC03111F1CF782D998A888AA601E4
:101490006E2D89890E94FE0686EE91E00E947806F4
:1014A00086E0F50111928A95E9F70E949F08F12CD8
:1014B00097C0C912DCCFE110DACFF8018583C801EB
:1014C0000E94780686E0F50111928A95E9F788C0B6
:1014D000EE2091F22091EB01822F82958F7090E0A7
:1014E00002970CF4B5CF8091E6019091E7019A83C1
:1014F00089831B829D828C822E83CE010196A6CF8A
:10150000683C710508F044C0FE2CEE2009F4B4CF0D
:10151000D21230C0C9122EC02091EB0120FD21C093
:10152000822F82958F70482F50E041155105C9F0E8
:10153000F80125834F30510541F08F5F982F929528
:10154000907F822F8F70892B8583C8010E94780637
:1015500086E0F801A6EEB1E001900D928A95E1F7E0
:101560003DC086E0F801A6EEB1E001900D928A95AB
:10157000E1F736C0C8010E94E306811169CF80916E
:10158000EB0181608093EB01C8010E94780628C0BE
:10159000782D998A888AA6016E2D89890E94FE0677
:1015A00086E0F50111928A95E9F718C0EE2009F45A
:1015B00063CFC8010E94E306F82E882309F45CCFAC
:1015C00086E0F801A6EEB1E001900D928A95E1F770
:1015D00086EE91E00E948C030E94CE080E949F0834
:1015E0008F2D6196ECE00C94781FACE0B0E0EBEF4F
:1015F000FAE00C94651F4F83588769877A878B8739
:101600009C87CE0107960E9437098823D1F09F81DD
:1016100088852A853B85232B31F08F3F31F481E08B
:101620009F3F19F403C081E001C080E080FD47C006
:101630004F81588569857A858B859C850E9408072E
:101640003EC086E0FE013796DE01119601900D92B4
:101650008A95E1F7FF81E8856A857B8561157105CB
:1016600031F0EF3F31F481E0FF3F19F403C081E036
:1016700001C080E080FD23C02091B50130E0C901A8
:101680000196877099274091B40150E0841795071F
:10169000F1F1F983EA837D836C8396E0929FD00118
:1016A000939FB00D1124AA54BE4FFE0131960190B4
:1016B0000D929A95E1F78093B5010E947E0816E09D
:1016C0008091B4019091B501891771F1189FC00103
:1016D00011248A549E4F0E943709882329F1E091F2
:1016E000B4011E9FF0011124EA54FE4F4081518144
:1016F00062817381848195810E9408078091B40181
:1017000090E00196877099278093B401D9CF0E9409
:10171000C3061092B5011092B401E6EEF1E086E046
:10172000DF011D928A95E9F72C96E3E00C94811F66
:1017300080910C02859585958595089580910C0280
:101740008770089590910C02977081E009F480E011
:10175000089580912F02089590912F02892B8093F4
:101760002F020895809590912F02892380932F0254
:10177000089510922F02089590912E02892B809344
:101780002E020895809590912E02892380932E0237
:10179000089510922E02089580910D0208950895E3
:1017A0000E94CF0B08950E94D00B08959091820261
:1017B00092FF08C090910D02981721F080930D02BE
:1017C0000E94D30B089580910D02882329F0109276
:1017D0000D0280E00E94D30B0895CF93DF93E09138
:1017E0000001F091010180912F028083E0910001BE
:1017F000F0910101908180912E02892B808380914C
:101800000D02882381F0E0910001F09101019081A7
:10181000892B808380910001909101010E94A31681
:1018200081110E94E30BC0910001D091010140E2BF
:1018300050E06CEE71E0CE010E94A11F892B59F09F
:1018400080E2FE01ACEEB1E001900D928A95E1F7E5
:10185000CE010E943116DF91CF9108950E94CF0BE7
:1018600008959091820292FF11C098E0899F9001A3
:101870001124262B20930C020E945A0780910C02FF
:101880008595859585950E942E0C08950E945A078E
:10189000089510920C0280E00E942E0C0895209171
:1018A0000C028095822380930C02982F977099F4F4
:1018B00030E0482F082E000C550B2417350759F03F
:1018C0009091820292FF07C08595859585950E942B
:1018D0006A070E94490C08959091820292FB222788
:1018E00020F9281769F080FB92F990938202809189
:1018F0008102909182020E94B40C82E00E944F0CFF
:1019000008958091820282FB882780F991E08927DF
:101910000E946C0C089581E00E946C0C089580E098
:101920000E946C0C08956FEF7FEF80E090E00E94C2
:10193000E31F089580E090E00E94BF1F21E0873EF2
:101940009E4F09F020E0822F089582E090E00E94EF
:10195000B71F089583E090E00E94B71F089584E0C8
:1019600090E00E94BF1F0895BC0184E090E00E94B7
:10197000E31F0895AB01BC018FE090E00E94D71FE8
:101980000895AB01BC0183E190E00E94D71F089548
:1019900060E070E0CB010E94C10C089560E070E04F
:1019A000CB010E94BA0C0E94C80C089567EE7EEF2E
:1019B00080E090E00E94E31F60E082E090E00E94FF
:1019C000C51F60E083E090E00E94C51F1092B30144
:1019D0001092B20160E074E184E090E00E94E31FA5
:1019E00060E086E090E00E94C51F6FEF87E090E026
:1019F0000E94C51F40E050E0BA0188E090E00E94DC
:101A0000D71F60E08DE090E00E94C51F40E050E0ED
:101A1000BA0188E190E00E94D71F60E087E190E082
:101A20000E94C51F40E050E0BA018CE190E00E94A6
:101A3000D71F60E070E080E290E00E94E31F40E08A
:101A400050E0BA0188E190E00E94D71F0E94CE0CBE
:101A500008950E94D60C0895682F8EE090E00E94B1
:101A6000C51F0895A5E0B0E0E8E3FDE00C94641F15
:101A70000E941F188C01809130029091310208174A
:101A80001907A1F08FEF89838A831B820E941F1898
:101A90008160782F9D838C8349815A816B818D81F0
:101AA0000E944B0310933102009330022596E4E02C
:101AB0000C94801F0E942B1860933E0270933F028B
:101AC000809340029093410260933A0270933B02EC
:101AD00080933C0290933D02089581E0089581E057
:101AE00008950E946F0D089508950E94740D089541
:101AF0000E94740D08950E94780D08950E94740D3F
:101B000008950E947E0D08950E94740D089585E247
:101B100090E10E941A160E94840D0E94810D089582
:101B20000E94750D0E94740D08950E9444100E9439
:101B30001F0308950E9416180E9420110E94950DFF
:101B40000E947B0D0895A5E0B0E0E9EAFDE00C9469
:101B50005B1F0E946D0D811103C00E94320D60C099
:101B60000E94361122E3E22E22E0F22E5701D12C00
:101B7000F501019111915F018D2D0E946210802766
:101B80009127D394F4E0DF1619F0892B89F302C072
:101B9000892B19F38091420281FD0E946B100E94F3
:101BA000710D782E10E0812F0E9462104C01F70118
:101BB000A080B180A826B926A114B10449F100E0A3
:101BC000CC24C394D12CC5018C219D21892BC1F03B
:101BD0007720B1F009831A8321E0C4018C219D2173
:101BE000892B09F420E02B830E941F188160782F35
:101BF0009D838C8349815A816B818D810E944B0327
:101C00000F5FCC0CDD1C0A30F1F6F7019182808267
:101C10001F5FF2E0EF0EF11C143029F60E945A0DFE
:101C20000E9453130E9432032596EDE00C94771F17
:101C30001F93CF93DF930E94460FEC01C11580E5FF
:101C4000D807E8F5C11590E4D90708F0A8C0C03E50
:101C5000D10530F5CD3CD10508F094C0C83AD10586
:101C600078F4C53AD10508F083C0C130D10509F434
:101C70007CC008F4F2C0C430D10508F0F1C0EDC05A
:101C8000C33CD10508F0E9C0C85AD0E0CC0FDD1F35
:101C9000C45BDE4F0990D881C02DCE019464E1C0B1
:101CA000C11580E2D80708F0CBC0C11591E0D90773
:101CB00008F06BC0C83ED10508F4D2C0CEC0C03613
:101CC00082E5D80728F5C03492E5D90708F079C035
:101CD000C03282E5D80708F06CC0C11592E5D9077B
:101CE00008F481C04C2F4695469580E2489FA0019C
:101CF0001124C37021E030E0C90102C0880F991F90
:101D0000CA95E2F7EA01C82BD92BCE019D68A9C07C
:101D1000C03A82E5D807B8F48C2F8F71C03892E5AD
:101D2000D90708F07BC08695869590E2899F90013F
:101D30001124C37081E090E002C0880F991FCA95FA
:101D4000E2F79A6868C0C03C82E5D80708F46DC025
:101D5000C03E92E5D90708F080C0CF71DD27DC2FA7
:101D6000CC27CE01806F906A7CC081E090E079C082
:101D7000C55AD0E0CE57DE4F8881C82FD0E0CE01C3
:101D800090646FC0CE0190656CC08D2F0E94E20FF1
:101D9000182FCE0199270E94460F1F715CC0CE01FB
:101DA00099270E94460FCC27DF70D06A8C2B9D2B81
:101DB00058C0CF71D0E0DC2FCC27CE01816F906A64
:101DC00050C08C2F8F718695869590E2899F9001E7
:101DD0001124C37081E090E002C0880F991FCA955A
:101DE000E2F79C6818C08C2F8F710E94E20F95E07B
:101DF000D695C7959A95E1F7CF70D0E0DC2FCC2728
:101E0000282F30E084FF05C084E0220F331F8A951D
:101E1000E1F7D069CE01822B932B23C090E0D82F1D
:101E2000CC27CE01846F906A1CC08C2F8F710E94CA
:101E3000E20F8F7190E0D82FCC27CE01906211C0B5
:101E40008D2F8F710E94E20F182FCE0199270E94CB
:101E5000460F1F719062912B04C080E090E001C09A
:101E6000CE01DF91CF911F910895743038F46A301C
:101E700028F4462F672F0E944002089580E090E0EA
:101E800008950E94350F0E94180E0895823891051A
:101E900069F1B0F48133910509F475C048F48932D1
:101EA000910509F467C08A32910509F471C008955B
:101EB0008533910509F459C089339105B9F0089526
:101EC000833E910589F138F4803E9105D1F0823E40
:101ED000910529F10895863E9105C9F1873E910546
:101EE000D9F1843E910509F06CC027C02091810290
:101EF00020FD57C021FD55C02091820223FD5BC00B
:101F000008958091810280FD48C08091820280FF07
:101F100048C08091810284FD46C083EE51C080910B
:101F2000810282FF3CC0F5CF8091810282FD37C0E3
:101F30008091820280FD35C0ECCF8091820281FFCA
:101F400036C08091810284FD2EC087EE39C0809119
:101F5000810283FF2AC0F5CF8091810283FD25C0D5
:101F60008091820281FD23C0ECCF8091810285FDAA
:101F700022C01FC08091810285FD1BC0809182021A
:101F800083FF19C00AC08091810286FD16C017C068
:101F90008091810286FD13C010C089E311C082EEDA
:101FA0000FC080EE0DC080E00BC086EE09C084EE4D
:101FB00007C085E305C089E203C08AE201C081E36E
:101FC00090E008959091810292FF0DC0282F287112
:101FD000283019F4877F846006C0282F24712430AC
:101FE00011F48B7F886093FF0DC0282F2871283152
:101FF00019F4877E846106C0282F2471243111F4DE
:102000008B7E88612091820220FF0DC0382F3871AD
:10201000383019F4877F816006C0382F3171313034
:1020200011F48E7F886021FF0DC0282F2871283180
:1020300019F4877E816106C0282F2171213111F4A6
:102040008E7E886194FD877E089580E008950E94C9
:10205000930C08950E9436112FEF86E791E02150EE
:1020600080409040E1F700C000000E94361180E0FF
:102070000E94621080FF04C00E9427100E946C180A
:1020800008950E942A1008950E949A0C811102C09E
:102090000E94290D0E94A50C809342020E94AF0C61
:1020A00090938202809381020E9441100E94AA0CA8
:1020B00090E00E9421078091B0019091B1010E94AF
:1020C0003F070895E82FF0E0EE0FFF1FE557FD4FA3
:1020D000808191810895089580EA8A95F1F70895A5
:1020E00000C008950E946C10089508950E94751014
:1020F00008950E94761008950E94751008950E9418
:102100007C100895F894E82FE295EF70F0E031A18B
:10211000282F2F7081E090E001C0880F2A95EAF700
:10212000982F9095932391A392A1892B82A37894C1
:1021300008950F931F93CF93DF93CFE8D1E0899158
:102140008F3F11F00E94821081E0C339D807B9F7A0
:10215000C5E8D1E00FE811E089918F3F11F00E94AE
:1021600082100C171D07C1F7DF91CF911F910F91BE
:102170000895A0E0B0E0EFEBF0E10C945F1F8C015C
:10218000C62FD0E0CE0181579E4F6C01FC0190819B
:102190009F3F09F450C0B62EF894E92FE295EF70F6
:1021A000F0E081A19F7021E030E001C0220F9A95FC
:1021B000EAF7822B81A382A12095282322A3789479
:1021C0000E947010E5E8F1E04FE851E021E030E0D6
:1021D000E12CF12C61916F3F89F0A62FA295AF7091
:1021E000B0E090968C9190E06F7002C095958795C5
:1021F0006A95E2F780FD02C0C90102C080E090E06C
:10220000E82AF92A220F331F4E175F0719F7F60144
:1022100080818F3F11F00E94821061E0E114F1048F
:1022200009F460E08B2D0E947210CC0FDD1FC00FEF
:10223000D11FF982E882CDB7DEB7E9E00C947B1FAD
:102240000E94991088E0EBE8F2E0DF01982F1D92E0
:102250009A95E9F7E3E8F2E0DF011D928A95E9F744
:1022600084E00E9471110E947F100895A8E0B0E000
:10227000ECE3F1E10C94631F8E010F5F1F4F88E0C8
:10228000F80111928A95E9F7F12C6F2DC8010E948F
:10229000B910F394F4E0FF12F8CF48E050E0B80131
:1022A00083E892E00E94A11F21E0009709F420E05A
:1022B000892B41F088E0F801A3E8B2E001900D928B
:1022C0008A95E1F744E06BE872E083E892E00E94CF
:1022D0007211182F0E947910812F2896E5E00C9436
:1022E0007F1F0895EF92FF920F931F93CF93DF9379
:1022F0007C018B01C42F222349F081E080934502A9
:102300000E941F18909344028093430280914502DB
:10231000811102C080E01CC0809143029091440270
:102320000E9437180597B0F3D0E0CC0FDD1FAE0147
:10233000B701C8010E94A11F892B39F0AE01B70176
:10234000C8010E94AE1F81E001C080E010924502EA
:10235000CDB7DEB7E6E00C947E1F0E940A1A0E94F9
:102360009A0D0E94171A08950E941C1A0E94A30D2C
:102370000E94361A08950E94B6170E94F0190E9412
:10238000870D0E94AD110E94B4110E94900DFBCFE9
:1023900080914C0280FF06C06091070170E0660FDB
:1023A000771F26C081FF04C06091070184E005C04B
:1023B00082FF07C06091070188E0689FB001112487
:1023C00017C090914B029923D1F0609106019617A6
:1023D00088F72091070188E0289F90011124929F9F
:1023E000A001939F500D112470E0CA010E943C1F70
:1023F0006038710540F46115710519F406C068E094
:1024000070E0862F08958FE7089581E00895809108
:102410004C0280FF08C06091030170E075956795DC
:102420007595679521C081FF06C06091030170E03A
:102430007595679519C082FF04C06091030170E033
:1024400010C090914A02992399F060910201961769
:10245000A0F780910301899FC001112470E00E94C0
:102460003C1F6038710540F46115710519F406C010
:1024700061E070E0862F08958FE7089581E0089568
:102480008D3C21F40E94C811819504C08E3C29F432
:102490000E94C8118093500208958F3C21F40E943D
:1024A000C811819504C0803D29F40E94C811809311
:1024B0004F020895893D19F40E94071205C08A3D14
:1024C00031F40E94071281958093510208958B3D4B
:1024D00021F40E940712819504C08C3D29F40E94CA
:1024E00007128093520208959FE2980F983078F473
:1024F00021E030E0A90102C0440F551F9A95E2F790
:10250000CA0190914E02892B80934E0208958D3D11
:1025100021F480914C0281600BC08E3D21F48091AA
:102520004C02826005C08F3D29F480914C0284608A
:1025300080934C0208958D3C39F49091500297FF9E
:1025400035C01092500259C08E3C29F4909150022F
:102550001916BCF32BC090914F028F3C29F497FFC2
:1025600025C010924F0249C0803D19F41916CCF3D2
:102570001DC090915102893D29F41916BCF41092A6
:1025800051023BC08A3D19F497FF10C0F8CF8B3D34
:1025900039F49091520297FF09C0109252022DC057
:1025A0008C3D21F4909152021916BCF39FE2980FD2
:1025B000983080F421E030E0A90102C0440F551F9B
:1025C0009A95E2F7CA01809590914E0289238093F3
:1025D0004E0213C08D3D21F480914C028E7F0BC0C2
:1025E0008E3D21F480914C028D7F05C08F3D29F4F2
:1025F00080914C028B7F80934C0280914F0281111D
:1026000006C080915002811102C010924B0280914D
:102610005102811106C080915202811102C01092B4
:102620004A0208950E941F1820914F02211104C0F0
:1026300020915002222321F0909349028093480276
:1026400020915102211104C020915202222321F035
:1026500090934702809346028DE492E00E944B16CD
:102660000895EDE4F2E086E0DF011D928A95E9F736
:1026700010924B0210924A0210924C020895FC01F3
:10268000828181110DC0838181110AC084818111F1
:1026900007C091E08581811101C090E0892F01C0C0
:1026A00081E081700895A6E0B0E0E9E5F3E10C94E3
:1026B000651F86E0EDE4F2E0DE01119601900D92D7
:1026C0008A95E1F710924F02109250021092510237
:1026D000109252028B81811104C08C81882309F4ED
:1026E0005FC080914802909149020E943718AC0166
:1026F00090914B02992339F02091080130E0241782
:10270000350758F04DC0209109018AE0289F9001BB
:1027100011242417350718F043C09F3F19F09F5F1D
:1027200090934B021B81112361F00E94C811111676
:1027300014F09FEF01C091E0989F902D1124909389
:102740004F021C81112361F00E94C811111614F070
:102750009FEF01C091E0989F902D1124909350021B
:1027600030914F023323E1F0209150022223C1F037
:1027700045EB3403C0011124992319F090934F02C3
:1027800003C081E080934F0235EB2303C001112485
:10279000992319F09093500203C081E08093500276
:1027A0008D81811104C08E81882309F45FC08091DE
:1027B0004602909147020E943718AC0190914A025C
:1027C000992339F02091040130E02417350758F09F
:1027D0004DC0209105018AE0289F90011124241703
:1027E000350718F043C09F3F19F09F5F90934A024E
:1027F0001D81112361F00E940712111614F09FEF42
:1028000001C091E0989F902D1124909351021E8158
:10281000112361F00E940712111614F09FEF01C0FE
:1028200091E0989F902D1124909352023091510283
:102830003323E1F0209152022223C1F045EB34030F
:10284000C0011124992319F09093510203C081E033
:102850008093510235EB2303C0011124992319F011
:102860009093520203C081E080935202BE016F5FD9
:102870007F4F8DE492E00E946717811105C08DE4BF
:1028800092E00E943F1381110E94121386E0FE0124
:102890003196ADE4B2E001900D928A95E1F726966B
:1028A000E3E00C94811FCF93DF93FC01DB011296D0
:1028B0008C91882309F4DDC09F0130572332310504
:1028C00008F0D8C0EF010E94AF0C90938202809371
:1028D0008102FE01E150F047E232F10520F4EE59A9
:1028E000FF4F0C94501F809181028160AAC080919B
:1028F00082028860B2C0809181028260A2C0809111
:10290000810220C08091810288609BC080918202F8
:102910001EC0809182028260A0C08091810280618D
:1029200090C08091810280628CC08091810280641D
:1029300088C00E94C30680918102806882C0809115
:102940008102886084607DC08091820282608160A3
:1029500084C0809181028E7F74C080918202877FC3
:102960007CC0809181028D7F6CC08091810220C0EB
:1029700080918102877F65C0809182021EC0809114
:1029800082028D7F6AC0809181028F7E5AC08091C1
:1029900081028F7D56C0809181028F7B52C00E9440
:1029A000C306809181028F774CC080918102877F1E
:1029B0008B7F47C0809182028D7F8E7F4EC0809139
:1029C000810282FB222720F991E0922790FB82F975
:1029D00090FB83F936C080918202982F9095917078
:1029E0008E7F892B90FB81F938C08091810286FB14
:1029F000222720F991E0922790FB86F922C00E94BD
:102A0000C3068091810287FB222720F991E092275B
:102A100090FB87F916C081E001C080E00E942C0D78
:102A20001EC08091810284FB222720F991E0922729
:102A300090FB84F906C080918102982F909590FBBD
:102A400080F9809381020BC08091820283FB222750
:102A500020F991E0922790FB83F980938202809184
:102A60008102909182020E94B40C0E94C30680E011
:102A700001C081E0DF91CF910895CF93DF9386313C
:102A80009C4741F5EB010E94A90B982F8A81209168
:102A9000000130910101882379F09A7A81E009F4EC
:102AA00080E080935302911102C069E201C065E3A6
:102AB000C9010E9439170AC080915302811102C0D6
:102AC00069E201C065E3C9010E9447170E94ED0B4E
:102AD00080E001C081E0DF91CF9108950F931F93B3
:102AE000CF93DF93C42FD22FFC0182818823B1F0D2
:102AF000409356020E941F189093550280935402EF
:102B000080E28C0F883008F04DC0C77081E001C0B2
:102B1000880FCA95EAF70E944C0444C0809156027F
:102B2000481330C080915402909155020E9437188A
:102B3000883C910538F510E21D0FCD17B9F080E201
:102B40008C0F883040F4C77081E001C0880FCA95AF
:102B5000EAF70E945304183010F581E09D2F97701A
:102B600001C0880F9A95EAF70E944C04802F0E94BA
:102B700042041830B8F4D77081E001C0880FDA95AC
:102B8000EAF70AC080E28C0F883060F4C77081E0F9
:102B900001C0880FCA95EAF70E94530403C0802F32
:102BA0000E944204DF91CF911F910F9108950F93DE
:102BB000FC01E851FC47E730F10590F5CB01EC57FB
:102BC000FF4F0C94501F06E221EE41EE6AE17CE7D4
:102BD00023C007E225EE45EE6BE17CE71DC006E26F
:102BE00021EE40EE68E17CE717C007E225EE44EEF7
:102BF00069E17CE711C006E221EE42EE6CE17CE780
:102C00000BC007E225EE46EE6DE17CE705C008E269
:102C100021E045EE6EE17CE70E946E1580E008C081
:102C2000FB018281882319F01092560201C081E0D5
:102C30000F91089590939501809394010895909336
:102C40005C0280935B020895E0915B02F0915C026C
:102C5000309729F00190F081E02D0995089580E0EA
:102C60000895FC01A0915B02B0915C02109791F075
:102C700080911201882341F08091810287FF04C076
:102C80008081818386E08083CF011296ED91FC9153
:102C9000139709950895E0915B02F0915C023097DB
:102CA00039F022E0DC012C930480F581E02D0995B8
:102CB0000895A3E0B0E0EFE5F6E10C94661F2091E3
:102CC000590230915A0228173907A1F090935A02FD
:102CD00080935902E0915B02F0915C02309751F0D1
:102CE00023E029839B838A830680F781E02DCE0130
:102CF000019609952396E2E00C94821FA3E0B0E0D0
:102D0000E4E8F6E10C94661F2091570230915802D6
:102D100028173907A1F09093580280935702E09149
:102D20005B02F0915C02309751F024E029839B8391
:102D30008A830680F781E02DCE01019609952396BE
:102D4000E2E00C94821FFC013296809112018823EC
:102D500031F08091810287FF02C09EE101C096E0C0
:102D600080E0915028F021912223D9F38F5FF9CF91
:102D70000895662351F1209112012223E9F0209158
:102D8000810227FF19C0462F4695469546954E313C
:102D9000E0F4677021E030E002C0220F331F6A9533
:102DA000E2F7FC01E40FF11D828190E02823392332
:102DB00081E0232B69F409C0FC0132960896219129
:102DC000621729F0E817F907D1F780E0089581E04C
:102DD00008959C01FC0132969FEF80E041914617D7
:102DE00089F09F3F19F4411101C0982F8F5F863001
:102DF000A9F79F3F39F0F901E90FF11D97FDFA9509
:102E00006283089508959C012A5F3F4FFC0142812F
:102E1000461301C01282019682179307B9F70895ED
:102E2000262F2695269526952E3168F4FC01E20F73
:102E3000F11D677021E030E001C0220F6A95EAF7CA
:102E40008281282B22830895262F26952695269564
:102E50002E3170F4FC01E20FF11D677021E030E0CB
:102E600001C0220F6A95EAF72095828128232283E8
:102E7000089520911201222339F02091810227FF29
:102E800003C00E94101708950E94E916089520912A
:102E90001201222339F02091810227FF03C00E94F2
:102EA000241708950E940317089520911201FC0130
:102EB0003296222331F08091810287FF02C08EE199
:102EC00001C086E0DF011D928A95E9F7089546E08A
:102ED00050E00E94A11F21E0892B09F420E0822FFD
:102EE000089508950E947117089583E080935D020C
:102EF0000E9472170895811102C081E001C082E032
:102F000080935D020E94721708950E947B170895B6
:102F100081E080935D020E94721708950E948817D5
:102F2000089508950E94911708950E949217089598
:102F30000E94911708950E94911708950E94911779
:102F40000895CF930E949B170E9436110E949817F4
:102F5000C0E08C2F0E946210892B29F4CF5FC4300F
:102F6000C1F780E001C081E0CF91089585B7806806
:102F700085BF85B7806885BF08951F920F920FB6F1
:102F80000F9211248F939F93AF93BF9380915E0212
:102F9000811113C08091930290919402A0919502A7
:102FA000B09196024196A11DB11D8093930290931A
:102FB0009402A0939502B0939602BF91AF919F9116
:102FC0008F910F900FBE0F901F90189580919B02CC
:102FD000843031F10E94020310925E0220E488E105
:102FE00090E00FB6F894A895809360000FBE2093F0
:102FF000600083B7817F846083BF83B7816083BFB4
:103000007894889583B78E7F83BF0FB6F894A89580
:1030100080916000886180936000109260000FBE14
:1030200008950E94C3060E940703089582E084BDAC
:1030300093E095BD9AEF97BD80936E0008952FB7EA
:10304000F8948091930290919402A0919502B0918E
:1030500096022FBF08952FB7F89460919302709154
:10306000940280919502909196022FBF08959C0141
:103070004FB7F8948091930290919402A091950299
:10308000B09196024FBF821B930B089578941F92C4
:103090000F920FB60F9211248F939F93AF93BF930C
:1030A0008091930290919402A0919502B091960222
:1030B0000196A11DB11D8093930290939402A09359
:1030C0009502B0939602BF91AF919F918F910F900F
:1030D0000FBE0F901F90189581E08093E00080E272
:1030E0008093D8001092C9008FE19EE40197F1F718
:1030F00000C0000087E090EBDC018093A402909375
:10310000A502A093A602B093A7029CE088E10FB6A7
:10311000F894A895809360000FBE90936000FFCF55
:103120009CE088E10FB6F894A895809360000FBEEC
:1031300090936000FFCF80917F0208959B01909152
:103140009B029430F1F48F708093E9008FEF90919F
:10315000E800815095FD06C095ED9A95F1F70000C5
:103160008111F5CF8091E80085FF0BC0BA01C9013C
:1031700040E050E00E94AE1A8091E8008E77809384
:10318000E800089543E050E0BC0182E00E949E18F0
:10319000089546E050E0BC0182E00E949E18089528
:1031A000CF93DF93EC0180911201811105C048E0BB
:1031B00050E0BE0181E00BC08091810287FF03C017
:1031C00040E282E002C048E081E050E0BE010E949F
:1031D0009E1880E2FE01AFE5B2E001900D928A9563
:1031E000E1F7DF91CF91089580919A02811109C092
:1031F0000E94391C0E94961C8091E200846080939A
:10320000E200089510929A0208950E948E17089580
:103210006091970281E0611101C080E00E94751702
:10322000089590919B0281E0943009F080E06091D4
:1032300097020E947B17089542E061EC81E00E94B2
:10324000B21B42E261EC82E00E94B21B90919B02B1
:1032500081E0943009F080E0609197020E94851728
:10326000089580919D02833009F461C030F481306B
:1032700071F0823009F49BC008958A3009F487C048
:103280008B3009F46CC0893009F0A9C020C080914E
:103290009C02813A09F0A3C08091E800877F809367
:1032A000E8008091A0029091A102892B21F460E2B4
:1032B0008FE592E003C060E080E090E070E00E9463
:1032C000F31A8091E8008B778093E800089580914D
:1032D0009C02813209F083C08091A0029091A102EA
:1032E000029708F07CC08091E800877F8093E80017
:1032F0008091E80082FD05C080919B028111F8CF8A
:103300006EC02091F3008091F20090E0922B029722
:1033100031F48091F100813011F0863021F48091F8
:10332000F10080937F028091E8008B7754C08091F8
:103330009C02813A09F053C08091A0029091A102B1
:10334000892B09F04CC08091E800877F8093E800CA
:103350008091E80080FFFCCF8091120137C08091FE
:103360009C028132E1F58091A0029091A102892B0B
:10337000B1F58091E800877F8093E8000E94E71B09
:1033800080919E02809312010E94C306089580914D
:103390009C02813221F58091E800877F8093E800CC
:1033A0000E94E71B80919F02809380020895809184
:1033B0009C02813AA1F48091E800877F8093E80025
:1033C0008091E80080FFFCCF809180028093F10023
:1033D0008091E8008E778093E8000E94E71B0895B3
:1033E00084B7877F84BF0FB6F894A895809160005A
:1033F000886180936000109260000FBE90E080E8CA
:103400000FB6F89480936100909361000FBE0E9404
:10341000881708950E94391C0E94961CE2EEF0E085
:1034200080818460808378940E94211F08958AE0BF
:1034300091E00E941F16089580919B028530A9F4A7
:1034400080919B02853079F40E94E6178091990261
:103450008823B1F30E94A117882391F30E94981A40
:103460000E94C306EDCF0E941118089508959A0195
:103470004091A2025091A3020E943F1A0895492F41
:10348000552743305105C9F060F44130510581F0B2
:103490004230510509F044C08BE390E042E952E02C
:1034A00043C041325105E1F04232510549F138C083
:1034B00082E190E04DEC52E037C0992781309105D0
:1034C00049F028F0029761F5EAE6F2E005C0EEE87F
:1034D000F2E002C0E8E7F2E0849190E0AF0124C09E
:1034E0006115710541F061307105D1F489E090E01A
:1034F0004DEB52E019C089E090E044EA52E014C07C
:103500006115710541F06130710551F486EB90E071
:103510004FED52E009C080E490E045E953E004C07B
:1035200080E090E040E050E0F9015183408308954D
:1035300080E189BD82E189BD09B400FEFDCF8091A3
:10354000D8008F7D8093D8008091E00082608093C6
:10355000E0008091E00081FDFCCF0895A0E0B0E0A4
:10356000E4EBFAE10C94601FEC018B017A010E94FC
:10357000061C811133C0E114F10439F0F701808198
:103580009181081B190BC80FD91FC12CD12C011513
:10359000110519F18091E80085FD16C08091E800C1
:1035A0008E778093E800E114F10449F0F7018081FF
:1035B0009181C80ED91ED182C08285E00FC00E94C1
:1035C000061C882321F30AC089918093F1000150E1
:1035D0001109FFEFCF1ADF0ADACF80E0CDB7DEB7EF
:1035E000E8E00C947C1F2091A2023091A3022617E0
:1035F000370748F06115710539F42091E8002E77FE
:103600002093E80001C0B901FC0120E061157105BB
:1036100079F180919B028823F1F18530F1F180915D
:10362000E80083FD3CC08091E80082FD2EC08091BF
:10363000E80080FFEBCF2091F3008091F20090E052
:10364000922B6115710551F08830910538F4219164
:103650002093F100615071090196F3CF21E00897A2
:1036600009F020E08091E8008E778093E800CECFCB
:103670002111CFCF0AC080919B02882361F0853051
:1036800061F08091E80083FD0AC08091E80082FF2C
:10369000F2CF80E0089582E0089583E0089581E00C
:1036A00008952091A2023091A3022617370748F00F
:1036B0006115710539F42091E8002E772093E80018
:1036C00001C0B901FC0120E06115710591F1809103
:1036D0009B02882309F440C0853009F43FC08091E3
:1036E000E80083FD3DC08091E80082FD2FC08091FD
:1036F000E80080FFE9CF2091F3008091F20090E094
:10370000922B6115710559F08830910540F4249190
:103710002093F1003196615071090196F2CF21E0BA
:10372000089709F020E08091E8008E778093E80008
:10373000CBCF2111CCCF0AC080919B02882361F0AE
:10374000853061F08091E80083FD0AC08091E80037
:1037500082FFF2CF80E0089582E0089583E008952B
:1037600081E00895982F973068F59093E9009817B5
:1037700039F07091EC002091ED005091F00003C001
:10378000242F762F50E021FD02C09F5FECCF3091B7
:10379000EB003E7F3093EB003091ED003D7F3093A6
:1037A000ED003091EB0031603093EB007093EC0052
:1037B0002093ED005093F0002091EE0027FDE5CF1F
:1037C00080E008958F708093E90081E008958091F2
:1037D0009C0287FF11C08091E80082FD05C08091A6
:1037E0009B028111F8CF11C08091E8008B770BC04C
:1037F00080919B02882349F08091E80080FFF8CFF8
:103800008091E8008E778093E80008952091E4008D
:103810003091E50095E64091EC00842F817040FFE7
:1038200023C08091E80080FD1DC080919B02882309
:1038300099F0853099F08091EB0085FD11C04091A1
:10384000E4005091E5002417350729F3915011F059
:103850009A01E1CF84E0089582E0089583E008951D
:1038600081E0089580E008954091E80042FFDDCFB7
:1038700008950E94A81C0E94B01CE0EEF0E0808138
:1038800081608083E8EDF0E080818F77808319BCD0
:10389000A7EDB0E08C918E7F8C9380818F7E8083AA
:1038A00010929A0208950F931F93CF93DF930E9473
:1038B000A81C0E94B01CC8EDD0E088818F77888357
:1038C00088818068888388818F7D888319BC109265
:1038D0009B0210929702109299021092980200EEA9
:1038E00010E0F80180818B7F8083888181608883EC
:1038F00042E060E080E00E94B21BE1EEF0E08081F7
:103900008E7F8083E2EEF0E0808181608083808121
:1039100088608083F80180818E7F808388818061C8
:103920008883DF91CF911F910F910895E8EDF0E02A
:1039300080818F7E8083E7EDF0E0808181608083ED
:1039400084E082BF81E080939A020E94531C089514
:10395000E8EDF0E080818E7F80831092E200089590
:103960001092DA001092E10008951F920F920FB6A4
:103970000F9211242F933F934F935F936F937F93F5
:103980008F939F93AF93BF93EF93FF938091E10049
:1039900082FF0BC08091E20082FF07C08091E100AE
:1039A0008B7F8093E1000E94201F8091DA0080FFCE
:1039B0001FC08091D80080FF1BC08091DA008E7FED
:1039C0008093DA008091D90080FF0DC080E189BD2D
:1039D00082E189BD09B400FEFDCF81E080939B02A6
:1039E0000E94F41805C019BC10929B020E94021993
:1039F0008091E10080FF19C08091E20080FF15C036
:103A00008091E2008E7F8093E2008091E2008061ED
:103A10008093E2008091D80080628093D80019BC26
:103A200085E080939B020E9408198091E10084FF49
:103A300030C08091E20084FF2CC080E189BD82E12A
:103A400089BD09B400FEFDCF8091D8008F7D8093A1
:103A5000D8008091E1008F7E8093E1008091E200A8
:103A60008F7E8093E2008091E20081608093E2008B
:103A700080919702882311F084E007C08091E300D1
:103A800087FD02C081E001C083E080939B020E9419
:103A900011198091E10083FF29C08091E20083FF2A
:103AA00025C08091E100877F8093E10082E08093D0
:103AB0009B02109297028091E1008E7F8093E1003B
:103AC0008091E2008E7F8093E2008091E20080612D
:103AD0008093E20042E060E080E00E94B21B8091AF
:103AE000F00088608093F0000E940519FF91EF912B
:103AF000BF91AF919F918F917F916F915F914F9106
:103B00003F912F910F900FBE0F901F9018951F920D
:103B10000F920FB60F9211242F933F934F935F9301
:103B20006F937F938F939F93AF93BF93CF93DF93C5
:103B3000EF93FF93C091E900CF708091EC00D82FF4
:103B4000D17080FDD0E81092E9008091F000877F6D
:103B50008093F00078940E94CB1D1092E900809130
:103B6000F00088608093F000CD2BCF70C093E90007
:103B7000FF91EF91DF91CF91BF91AF919F918F9185
:103B80007F916F915F914F913F912F910F900FBE59
:103B90000F901F901895AAE2B0E0E1EDFDE10C94C2
:103BA000651FECE9F2E08091F100819322E0E43AB4
:103BB000F207C9F70E9431198091E80083FF2EC1F6
:103BC00080919C0290919D02492F50E04A3051050E
:103BD00008F024C1FA01E557FF4F0C94501F8038BC
:103BE00021F0823809F01AC108C0809198029091A2
:103BF0009902992389F082600FC08091A0028F7092
:103C0000873008F00BC18093E9008091EB0085FBC1
:103C1000882780F91092E9009091E800977F9093AF
:103C2000E8008093F1001092F100D1C0282F2D7F81
:103C300009F0F4C0882319F0823061F0EFC0809160
:103C40009E02813009F0EAC0933009F080E0809351
:103C500099022EC080919E0281112AC08091A002FB
:103C60008F702FEF280F263008F0D8C08093E9001E
:103C70002091EB0020FF1CC0933021F48091EB00D9
:103C8000806214C09091EB0090619093EB0021E072
:103C900030E0A90102C0440F551F8A95E2F7409316
:103CA000EA001092EA008091EB0088608093EB00BC
:103CB0001092E9008091E800877F8093E8000E94DD
:103CC000E71BACC08111AAC010919E021F778091A2
:103CD000E3008078812B8093E3008091E800877F68
:103CE0008093E8000E94E71B8091E80080FFFCCFF2
:103CF0008091E30080688093E300111102C082E0AC
:103D000001C083E080939B0289C08058823008F014
:103D100085C080919E0290919F028C3D53E0950753
:103D200079F583E08A838AE289834FB7F894DE01CC
:103D3000139620E03EE051E2E32FF0E0509357006D
:103D4000E49120FF03C0E295EF703F5FEF708E2F8C
:103D500090E0EA3010F0C79601C0C0968D939D9315
:103D60002F5F243149F74FBF8091E800877F809310
:103D7000E8006AE270E0CE0101960E94F31A16C0D4
:103D80006091A0027091A102AE014F5F5F4F0E944F
:103D9000371ABC01892B09F441C09091E800977F44
:103DA0009093E80089819A810E94511B8091E800DC
:103DB0008B778093E80032C0803881F58091E800ED
:103DC000877F8093E800809197028093F100809133
:103DD000E8008E7772CF811121C080919E02909170
:103DE0009F0299270297D4F48091E800877F8093FF
:103DF000E80080919E02809397020E94E71B8091C9
:103E00009702811106C08091E30087FD02C081E026
:103E100001C084E080939B020E941C198091E800FD
:103E200083FF0AC08091E800877F8093E80080913B
:103E3000EB0080628093EB00AA96E3E00C94811F74
:103E40000895CF9380919B028823A1F0C091E9004F
:103E5000CF709091EC00892F817090FD80E8C82B85
:103E60001092E9008091E80083FD0E94CB1DCF7085
:103E7000C093E900CF91089597FB072E16F40094A4
:103E800007D077FD09D00E948D1F07FC05D03EF4B6
:103E9000909581959F4F0895709561957F4F0895F6
:103EA000EE0FFF1F0590F491E02D09942F923F92A1
:103EB0004F925F926F927F928F929F92AF92BF923A
:103EC000CF92DF92EF92FF920F931F93CF93DF93E6
:103ED000CDB7DEB7CA1BDB0B0FB6F894DEBF0FBE43
:103EE000CDBF09942A88398848885F846E847D8490
:103EF0008C849B84AA84B984C884DF80EE80FD8092
:103F00000C811B81AA81B981CE0FD11D0FB6F89407
:103F1000DEBF0FBECDBFED010895AA1BBB1B51E153
:103F200007C0AA1FBB1FA617B70710F0A61BB70B29
:103F3000881F991F5A95A9F780959095BC01CD01CE
:103F40000895FB01DC0104C08D910190801921F4DA
:103F500041505040C8F7881B990B0895FB01DC01C4
:103F600002C001900D9241505040D8F70895F99940
:103F7000FECF92BD81BDF89A992780B50895A8E13A
:103F8000B0E042E050E00C94EB1F262FF999FECFF1
:103F900092BD81BDF89A019700B4021639F01FBA9C
:103FA00020BD0FB6F894FA9AF99A0FBE08950396B9
:103FB000272F0E94C61F0E94C51F252F0E94C61FC3
:103FC000242F0C94C61F0196272F0E94C61F0C9405
:103FD000C51FDC01CB01FC01F999FECF06C0F2BD83
:103FE000E1BDF89A319600B40D9241505040B8F7B7
:063FF0000895F894FFCFD4
:103FF6000E02280850011E0A14019B18D018C91871
:10400600C21801E200E900EA00B500B600B700CD2B
:10401600008301CC008A019201940121022302242B
:10402600022502260227022A02B300B4006F00709E
:10403600009F01CB019F02A002818283E200E9007A
:10404600EA00B500B600B700CD008301CC008A01B6
:10405600920194012102230224022502260227024C
:104066002A02B300B4006F0070009F01CB019F02CB
:10407600A002818283F4F5F6F73197669490913227
:044086003436350097
:00000001FF
